{
  "contractName": "StorageFactory",
  "abi": [
    {
      "inputs": [
        {
          "internalType": "address",
          "name": "_implementationAddress",
          "type": "address"
        }
      ],
      "stateMutability": "nonpayable",
      "type": "constructor"
    },
    {
      "anonymous": false,
      "inputs": [
        {
          "indexed": false,
          "internalType": "address",
          "name": "_storageCloneAddress",
          "type": "address"
        },
        {
          "indexed": false,
          "internalType": "uint256",
          "name": "creationTime",
          "type": "uint256"
        }
      ],
      "name": "StorageCloneCreated",
      "type": "event"
    },
    {
      "inputs": [
        {
          "internalType": "uint256",
          "name": "",
          "type": "uint256"
        }
      ],
      "name": "StorageCloneAddresses",
      "outputs": [
        {
          "internalType": "address",
          "name": "",
          "type": "address"
        }
      ],
      "stateMutability": "view",
      "type": "function",
      "constant": true
    },
    {
      "inputs": [],
      "name": "implementationAddress",
      "outputs": [
        {
          "internalType": "address",
          "name": "",
          "type": "address"
        }
      ],
      "stateMutability": "view",
      "type": "function",
      "constant": true
    },
    {
      "inputs": [
        {
          "internalType": "string",
          "name": "_initializationData",
          "type": "string"
        }
      ],
      "name": "createStorage",
      "outputs": [],
      "stateMutability": "nonpayable",
      "type": "function"
    }
  ],
  "bytecode": "0x608060405234801561001057600080fd5b506040516108223803806108228339818101604052810190610032919061008e565b80600160006101000a81548173ffffffffffffffffffffffffffffffffffffffff021916908373ffffffffffffffffffffffffffffffffffffffff16021790555050610109565b600081519050610088816100f2565b92915050565b6000602082840312156100a4576100a36100ed565b5b60006100b284828501610079565b91505092915050565b60006100c6826100cd565b9050919050565b600073ffffffffffffffffffffffffffffffffffffffff82169050919050565b600080fd5b6100fb816100bb565b811461010657600080fd5b50565b61070a806101186000396000f3fe608060405234801561001057600080fd5b50600436106100415760003560e01c80635ba9efb214610046578063a1034e0d14610062578063b97a231914610092575b600080fd5b610060600480360381019061005b91906103a9565b6100b0565b005b61007c600480360381019061007791906103f2565b6101ea565b6040516100899190610499565b60405180910390f35b61009a610229565b6040516100a79190610499565b60405180910390f35b60006100dd600160009054906101000a900473ffffffffffffffffffffffffffffffffffffffff1661024f565b90508073ffffffffffffffffffffffffffffffffffffffff1663f62d1888836040518263ffffffff1660e01b815260040161011891906104dd565b600060405180830381600087803b15801561013257600080fd5b505af1158015610146573d6000803e3d6000fd5b505050506000819080600181540180825580915050600190039060005260206000200160009091909190916101000a81548173ffffffffffffffffffffffffffffffffffffffff021916908373ffffffffffffffffffffffffffffffffffffffff1602179055507f32fe8bc09c96be7d1c6015795d8d93cd431fc49dfc19b68f289c8dc958ed8e4881426040516101de9291906104b4565b60405180910390a15050565b600081815481106101fa57600080fd5b906000526020600020016000915054906101000a900473ffffffffffffffffffffffffffffffffffffffff1681565b600160009054906101000a900473ffffffffffffffffffffffffffffffffffffffff1681565b60006040517f3d602d80600a3d3981f3363d3d373d3d3d363d7300000000000000000000000081528260601b60148201527f5af43d82803e903d91602b57fd5bf3000000000000000000000000000000000060288201526037816000f0915050600073ffffffffffffffffffffffffffffffffffffffff168173ffffffffffffffffffffffffffffffffffffffff16141561031f576040517f08c379a0000000000000000000000000000000000000000000000000000000008152600401610316906104ff565b60405180910390fd5b919050565b600061033761033284610544565b61051f565b90508281526020810184848401111561035357610352610674565b5b61035e8482856105cd565b509392505050565b600082601f83011261037b5761037a61066f565b5b813561038b848260208601610324565b91505092915050565b6000813590506103a3816106bd565b92915050565b6000602082840312156103bf576103be61067e565b5b600082013567ffffffffffffffff8111156103dd576103dc610679565b5b6103e984828501610366565b91505092915050565b6000602082840312156104085761040761067e565b5b600061041684828501610394565b91505092915050565b61042881610591565b82525050565b600061043982610575565b6104438185610580565b93506104538185602086016105dc565b61045c81610683565b840191505092915050565b6000610474601683610580565b915061047f82610694565b602082019050919050565b610493816105c3565b82525050565b60006020820190506104ae600083018461041f565b92915050565b60006040820190506104c9600083018561041f565b6104d6602083018461048a565b9392505050565b600060208201905081810360008301526104f7818461042e565b905092915050565b6000602082019050818103600083015261051881610467565b9050919050565b600061052961053a565b9050610535828261060f565b919050565b6000604051905090565b600067ffffffffffffffff82111561055f5761055e610640565b5b61056882610683565b9050602081019050919050565b600081519050919050565b600082825260208201905092915050565b600061059c826105a3565b9050919050565b600073ffffffffffffffffffffffffffffffffffffffff82169050919050565b6000819050919050565b82818337600083830152505050565b60005b838110156105fa5780820151818401526020810190506105df565b83811115610609576000848401525b50505050565b61061882610683565b810181811067ffffffffffffffff8211171561063757610636610640565b5b80604052505050565b7f4e487b7100000000000000000000000000000000000000000000000000000000600052604160045260246000fd5b600080fd5b600080fd5b600080fd5b600080fd5b6000601f19601f8301169050919050565b7f455243313136373a20637265617465206661696c656400000000000000000000600082015250565b6106c6816105c3565b81146106d157600080fd5b5056fea2646970667358221220cfce9a2a0ae13211c49d2b5adcb0e201f760f37915b91419e4fe86c19b1dc25264736f6c63430008060033",
  "immutableReferences": {},
  "source": "pragma solidity ^0.8.0;\n\nimport \"./Storage.sol\";\nimport \"@openzeppelin/contracts/proxy/Clones.sol\";\n\ncontract StorageFactory {\n    event StorageCloneCreated(\n        address _storageCloneAddress,\n        uint creationTime\n    );\n\n    address[] public StorageCloneAddresses;\n    address public implementationAddress;\n\n    constructor(address _implementationAddress) {\n        implementationAddress = _implementationAddress;\n    }\n\n    function createStorage(string memory _initializationData) external {\n        address storageCloneAddress = Clones.clone(implementationAddress);\n        Storage(storageCloneAddress).initialize(_initializationData);\n        StorageCloneAddresses.push(storageCloneAddress);\n        emit StorageCloneCreated(storageCloneAddress, block.timestamp);\n    }\n}",
  "sourcePath": "/Users/ryanbajollari/code/MinimalProxy/contracts/StorageFactory.sol",
  "compiler": {
    "name": "solc",
    "version": "0.8.6+commit.11564f7e.Emscripten.clang"
  },
  "schemaVersion": "3.4.2",
  "updatedAt": "2021-08-08T21:15:10.407Z",
  "networkType": "ethereum",
  "devdoc": {
    "kind": "dev",
    "methods": {},
    "version": 1
  },
  "userdoc": {
    "kind": "user",
    "methods": {},
    "version": 1
  }
}