{
  "contractName": "Storage",
  "abi": [
    {
      "inputs": [],
      "name": "data",
      "outputs": [
        {
          "internalType": "string",
          "name": "",
          "type": "string"
        }
      ],
      "stateMutability": "view",
      "type": "function",
      "constant": true
    },
    {
      "inputs": [],
      "name": "initializationData",
      "outputs": [
        {
          "internalType": "string",
          "name": "",
          "type": "string"
        }
      ],
      "stateMutability": "view",
      "type": "function",
      "constant": true
    },
    {
      "inputs": [
        {
          "internalType": "string",
          "name": "_initializationData",
          "type": "string"
        }
      ],
      "name": "initialize",
      "outputs": [],
      "stateMutability": "nonpayable",
      "type": "function"
    },
    {
      "inputs": [
        {
          "internalType": "string",
          "name": "_data",
          "type": "string"
        }
      ],
      "name": "setData",
      "outputs": [],
      "stateMutability": "nonpayable",
      "type": "function"
    }
  ],
  "bytecode": "0x608060405234801561001057600080fd5b50610880806100206000396000f3fe608060405234801561001057600080fd5b506004361061004c5760003560e01c806347064d6a1461005157806373d4a13a1461006d578063e4fdb9e31461008b578063f62d1888146100a9575b600080fd5b61006b60048036038101906100669190610523565b6100c5565b005b6100756100db565b6040516100829190610615565b60405180910390f35b610093610169565b6040516100a09190610615565b60405180910390f35b6100c360048036038101906100be9190610570565b6101f7565b005b8181600191906100d6929190610334565b505050565b600180546100e89061070b565b80601f01602080910402602001604051908101604052809291908181526020018280546101149061070b565b80156101615780601f1061013657610100808354040283529160200191610161565b820191906000526020600020905b81548152906001019060200180831161014457829003601f168201915b505050505081565b600280546101769061070b565b80601f01602080910402602001604051908101604052809291908181526020018280546101a29061070b565b80156101ef5780601f106101c4576101008083540402835291602001916101ef565b820191906000526020600020905b8154815290600101906020018083116101d257829003601f168201915b505050505081565b600060019054906101000a900460ff168061021d575060008054906101000a900460ff16155b61025c576040517f08c379a000000000000000000000000000000000000000000000000000000000815260040161025390610637565b60405180910390fd5b60008060019054906101000a900460ff1615905080156102ac576001600060016101000a81548160ff02191690831515021790555060016000806101000a81548160ff0219169083151502179055505b81600290805190602001906102c29291906103ba565b506040518060400160405280601f81526020017f4e6f742073657420627920736574446174612066756e6374696f6e20796574008152506001908051906020019061030e9291906103ba565b5080156103305760008060016101000a81548160ff0219169083151502179055505b5050565b8280546103409061070b565b90600052602060002090601f01602090048101928261036257600085556103a9565b82601f1061037b57803560ff19168380011785556103a9565b828001600101855582156103a9579182015b828111156103a857823582559160200191906001019061038d565b5b5090506103b69190610440565b5090565b8280546103c69061070b565b90600052602060002090601f0160209004810192826103e8576000855561042f565b82601f1061040157805160ff191683800117855561042f565b8280016001018555821561042f579182015b8281111561042e578251825591602001919060010190610413565b5b50905061043c9190610440565b5090565b5b80821115610459576000816000905550600101610441565b5090565b600061047061046b8461067c565b610657565b90508281526020810184848401111561048c5761048b6107db565b5b6104978482856106c9565b509392505050565b60008083601f8401126104b5576104b46107d1565b5b8235905067ffffffffffffffff8111156104d2576104d16107cc565b5b6020830191508360018202830111156104ee576104ed6107d6565b5b9250929050565b600082601f83011261050a576105096107d1565b5b813561051a84826020860161045d565b91505092915050565b6000806020838503121561053a576105396107e5565b5b600083013567ffffffffffffffff811115610558576105576107e0565b5b6105648582860161049f565b92509250509250929050565b600060208284031215610586576105856107e5565b5b600082013567ffffffffffffffff8111156105a4576105a36107e0565b5b6105b0848285016104f5565b91505092915050565b60006105c4826106ad565b6105ce81856106b8565b93506105de8185602086016106d8565b6105e7816107ea565b840191505092915050565b60006105ff602e836106b8565b915061060a826107fb565b604082019050919050565b6000602082019050818103600083015261062f81846105b9565b905092915050565b60006020820190508181036000830152610650816105f2565b9050919050565b6000610661610672565b905061066d828261073d565b919050565b6000604051905090565b600067ffffffffffffffff8211156106975761069661079d565b5b6106a0826107ea565b9050602081019050919050565b600081519050919050565b600082825260208201905092915050565b82818337600083830152505050565b60005b838110156106f65780820151818401526020810190506106db565b83811115610705576000848401525b50505050565b6000600282049050600182168061072357607f821691505b602082108114156107375761073661076e565b5b50919050565b610746826107ea565b810181811067ffffffffffffffff821117156107655761076461079d565b5b80604052505050565b7f4e487b7100000000000000000000000000000000000000000000000000000000600052602260045260246000fd5b7f4e487b7100000000000000000000000000000000000000000000000000000000600052604160045260246000fd5b600080fd5b600080fd5b600080fd5b600080fd5b600080fd5b600080fd5b6000601f19601f8301169050919050565b7f496e697469616c697a61626c653a20636f6e747261637420697320616c72656160008201527f647920696e697469616c697a656400000000000000000000000000000000000060208201525056fea2646970667358221220dfe37425b545bdb7cad547384e4f9733d50be5c50eff0f3668b4964c07eb4d4864736f6c63430008060033",
  "immutableReferences": {},
  "source": "pragma solidity ^0.8.0;\n\nimport \"@openzeppelin/contracts/proxy/utils/Initializable.sol\";\n\ncontract Storage is Initializable {\n    string public data;\n    string public initializationData;\n\n    function initialize(string memory _initializationData) external initializer {\n        initializationData = _initializationData;\n        data = 'Not set by setData function yet';\n    }\n\n    function setData (string calldata _data) external {\n        data = _data;\n    }\n}",
  "sourcePath": "/Users/ryanbajollari/code/MinimalProxy/contracts/Storage.sol",
  "compiler": {
    "name": "solc",
    "version": "0.8.6+commit.11564f7e.Emscripten.clang"
  },
  "schemaVersion": "3.4.2",
  "updatedAt": "2021-08-08T21:15:10.410Z",
  "networkType": "ethereum",
  "devdoc": {
    "kind": "dev",
    "methods": {},
    "version": 1
  },
  "userdoc": {
    "kind": "user",
    "methods": {},
    "version": 1
  }
}